:1000000045C0000053C0000051C000004FC00000B8
:100010004DC000004BC0000049C0000047C00000B8
:1000200045C0000043C0000041C000003FC00000C8
:100030003DC000003BC0000039C0000037C00000D8
:1000400035C0000033C0000031C000002FC00000E8
:100050002DC000002BC0000029C0000027C00000F8
:1000600025C0000023C0000021C000001FC0000008
:100070001DC000001BC0000019C0000017C0000018
:1000800015C0000013C0000011C0000011241FBEE5
:10009000CFEFD0E1DEBFCDBF21E0A0E0B1E001C0F5
:1000A0001D92A930B207E1F74DD193C1A9CF81B319
:1000B0008F7081BB089580B380719091020191117E
:1000C00011C0882379F02FEF8DEE92E0215080400F
:1000D0009040E1F700C0000081E08093020180E0E1
:1000E00090E00895913081F4811111C010920201C5
:1000F0002FEF86E791E0215080409040E1F700C06B
:10010000000081E090E0089580E090E0089580E0B4
:1001100090E0089580B3807290910101911111C017
:10012000882379F02FEF8DEE92E0215080409040AF
:10013000E1F700C0000081E08093010180E090E0E1
:100140000895913081F4811111C0109201012FEFB7
:1001500086E791E0215080409040E1F700C0000028
:1001600081E090E0089580E090E0089580E090E0E4
:10017000089580B3807490910001911111C088237B
:1001800079F02FEF8DEE92E0215080409040E1F722
:1001900000C0000081E08093000180E090E00895BD
:1001A000913081F4811111C0109200012FEF86E788
:1001B00091E0215080409040E1F700C0000081E0D4
:1001C00090E0089580E090E0089580E090E0089548
:1001D00080E090E013C021E030E0082E02C0220F42
:1001E000331F0A94E2F72BBB2FEF35EA4EE0215084
:1001F00030404040E1F700C0000001968830910592
:1002000054F3089580E090E013C020E830E0082E19
:1002100002C0359527950A94E2F72BBB2FEF35EAFC
:100220004EE0215030404040E1F700C00000019610
:100230008830910554F308951BBA20E030E016C0D1
:100240004BB381E090E0022E02C0880F991F0A9400
:10025000E2F7842B8BBB4FEF85EA9EE04150804054
:100260009040E1F700C000002F5F3F4F283031057C
:100270003CF308951BBA20E030E016C04BB380E891
:1002800090E0022E02C0959587950A94E2F7842BA0
:100290008BBB4FEF85EA9EE0415080409040E1F7F4
:1002A00000C000002F5F3F4F283031053CF3089518
:1002B00020E030E01EC080E890E0AC01022E02C0D9
:1002C000559547950A94E2F781E090E0022E02C02E
:1002D000880F991F0A94E2F7842B8BBB4FEF85EAB6
:1002E0009EE0415080409040E1F700C000002F5F49
:1002F0003F4F24303105FCF2089520E030E01EC06D
:1003000080E190E0AC01022E02C0440F551F0A9418
:10031000E2F788E090E0022E02C0959587950A9456
:10032000E2F7842B8BBB4FEF85EA9EE04150804083
:100330009040E1F700C000002F5F3F4F24303105AF
:10034000FCF208958FEF8ABB1BBAB1DEB4DE892BB5
:1003500099F081E090E02091070130910801232B72
:1003600011F080E090E09093080180930701892BC1
:1003700011F02EDF01C046DFCDDE892B99F081E040
:1003800090E02091050130910601232B11F080E0CF
:1003900090E09093060180930501892B11F04CDFCA
:1003A00001C068DFE6DE892B89F281E090E02091D0
:1003B000030130910401232B11F080E090E0909331
:1003C000040180930301892B11F072DFBFCF95DF09
:0603D000BDCFF894FFCF41
:00000001FF
